:1010B700483A004C3A0000543A0020002046414E7E
:1010C7003A33002046414E3A32002046414E3A31EB
:0810D700002046414E3A3000B2
:07127300021D0000011C0038
:07125D00C297121264D29641
:05126400000000002263
:0F123400D296D297121264C297121264C29622F7
:0A126900C29612125DD297021264C1
:0A11F500AC071212347FA01211C2E1
:0D11FF00D296121264A2979204C296A20426
:01120C0022BF
:0D12430012125DC296121264D2970212645C
:0D125000D29712125FC296121264C297224A
:1011A700E4FEEF25E0FFD296121264A297E43342E1
:0A11B70007C2961212640EBE08E88B
:0111C100220B
:1011C200C296E4FEEF339297D296121264C296EF61
:0911D20025E0FF0EBE08EDD297E6
:0111DB0022F1
:10108A001211F5920220021FAF041211C21211FFAF
:10109A0092021212347FA11211C21211FF9202128D
:0C10AA0011A7AD07121250121269AF0519
:0110B6002217
:1010DF001211F59203200317AF051211C21211FF5F
:1010EF00920320030AAF041211C21211FF920312CE
:0510FF001269021264F9
:091104007F141211DC7F647E00EF
:10110D007DFAD3EF9400EE9400400FDDFE7DF9DD06
:0A111D00FE7DFAEF1F70EB1E80E864
:0111270022A5
:10122300C292C290D291D292AF80EF20E7F2C292E3
:011233002298
:1011DC00AE07121223C290C291C2928E80D292009C
:0911EC00C2927F017E0002110D88
:10105C007C007D0A120CA5ED2430FF1210717FDF8D
:05106C001210717F432A
:10107100AE07121223D290C291C2928E80D29200F8
:09108100C2927F057E0002110DF0
:10116C007F381211DC007F0C1211DC007F0612118B
:0E117C00DC007F011211DC7F017E0002110DEC
:10102A008B198A1A891B1211DCAB19AA1AA91B126D
:10103A000C8CD39400401A051BE51B7002051A1488
:10104A00F9120C8CFF1210717F017E0012110D80B3
:02105A00D8229A
:02128100D32276
:040E8300A907AE030A
:100E8700C202D3ED6480F8E96480984009BE010688
:100E97007A007B0180047A007B00C3ED6480F8E967
:100EA700648098400AEE7007F5837582018003908D
:100EB7000000E5834AFAE5824B4A6002D202121229
:100EC70023EE6008EDFB3395E0FA8015C3E96480F3
:100ED70094FF50093002067A007B0180047A007B78
:100EE70000EB4A600EEE6003ED8001E904FFAD06FA
:030EF7001210DFF7
:010EFA0022D5
:040EFB00A907AE0392
:100EFF00C202C3ED6480F8E96480984009BE010620
:100F0F007A007B0180047A007B00D3ED6480F8E9DE
:100F1F00648098400AEE7007F58375820180039014
:100F2F000000E5834AFAE5824B4A6002D2021212B0
:100F3F0023EE6008EDFB3395E0FA8015D3E964806A
:100F4F00944940093002067A007B0180047A007BC5
:100F5F0000EB4A600EEE6003ED8001E914FFAD0671
:030F6F001210DF7E
:010F7200225C
:02128300C32284
:040D3E008E158F1669
:100D420012108AEF3395E0FEEF2401F518E43EF528
:100D520017E51645157BFF70087A1079B77F8080FA
:100D6200067A1079BA7F8912102AC3E5189464E5CD
:100D7200176480948040047F31801DC3E51764802E
:100D8200948050127F2D121071C3E49518F518E467
:100D92009517F51780057F20121071C3E518940A84
:100DA200E5176480948050047F208029C3E518945D
:100DB20064E51764809480AE17AF187C007D0A400A
:100DC2000D120CA57C007D0A120CA5ED8004120CFC
:100DD200A5EF2430FF121071AE17AF1812105CE5A8
:100DE2001645157BFF7A1079BD70047F8280027FE1
:040DF2009012102A21
:010DF60022DA
:06127B00000000DFFB2271
:10120D00E4F519C2957F7812127BD2957F101212D8
:06121D007B7F5002127BF2
:10114B00E4FD7E08C2957F0112127BD295EDC3138D
:10115B00FD3095034305807F0B12127BDEE6AF0556
:01116B002261
:02118A00AE07AE
:10118C007D08C295EE1392957F0C12127BD295EED0
:0A119C00C313FE7F0512127BDDE88D
:0111A6002226
:100F730012120D7FCC12118A7F4412118A12120DA4
:100F83007FCC12118A7FBE12118A12114BAC071249
:100F9300114BAD07ED751500F516751600F515AF78
:100FA30004EF4216EDC394084020E516F4FFE5155F
:100FB300F4FEEF2401F516E43EF515FCAD16120B15
:100FC300D2E4FBFA792078BF800FAC15AD16EC1292
:100FD3000BD2E4FBFA7920783F120AC7120C0B8E6E
:070FE300178F18AE17AF18BD
:010FEA0022E4
:08112800E51304FFE51404FDCA
:10113000AC05AB0712120D7FCC12118A7F4E121133
:0B1140008AAF0312118AAF0402118A6B
:03000B00020FEBF6
:100FEB00C0E0C0D075D008AF1C7E00C3E51E9FE5E6
:100FFB001D9E5002D2A7D3E51E9FE51D9E4002C247
:10100B00A7C3E51E9405E51D94004006751D0075EC
:0F101B001E00051EE51E7002051DD0D0D0E0326C
:10080000D200C20112120D12116CC2A7758C66754E
:100810008A66C28DD2AFD2A97FC01211DCE4FFFE7E
:10082000120D3E7F017E00120D3E120F738E108F4F
:1008300011851112E51164804510700375127F7BDC
:10084000FF7A1079BE7FC012102AC3E51194E8E543
:10085000106480948340047F31800BC3E510648072
:10086000948050077F2D121071800B7BFF7A1079D6
:10087000C17FC212102AC3E5119464E5106480940C
:1008800080500CE511949CE5106480947F5018AE64
:1008900010AF117C007D64120CA57C007D0A120C47
:1008A000A5ED2430FF80027F02121071C3E5119480
:1008B0000AE51064809480500CE51194F6E510640C
:1008C00080947F5018AE10AF117C007D0A120CA5E9
:1008D0007C007D0A120CA5ED2430FF80027F0212FD
:1008E00010717F2E121071AE10AF1112105CE4FF68
:1008F00012108A8F137F0112108A8F147BFF7A10D7
:1009000079BD3000047F9080027F8312102A120F7D
:10091000737C007D0A120CA58F12AF13EF3395E0A4
:10092000FEEF2405FFE43EFEAD12ED3395E0FCC37F
:10093000ED9FEE6480F8EC648098400B751C057B9D
:10094000FF7A1079C38063AF13EF3395E0FEEF2495
:1009500003FFE43EFEAD12ED3395E0FCC3ED9FEEE8
:100960006480F8EC648098400B751C047BFF7A105F
:1009700079CA8036AF13EF3395E0FEEF2401FFE430
:100980003EFEAD12ED3395E0FCC3ED9FEE6480F8C2
:10099000EC648098400B751C027BFF7A1079D18043
:1009A00009E4F51C7BFF7A1079D87FC912102AE57B
:1009B0001C6004D28C8002C28C3001247BFF30008A
:1009C000087A1079BA7F8980067A1079BD7F821201
:1009D000102A7F0F1211DC121104121104121104DB
:1009E00012112820B708200105121281920130014E
:1009F0005E20B702B20020B618121128A200E4331C
:100A0000FBAD14AF13120E837F057E0012110D8013
:100A10003E20B533E4FF12108AAB077F0112108A23
:100A2000AD07AF03121130A200E433FBAD14AF13D6
:100A3000120EFB7F057E0012110DE51314FFE51465
:100A400014FD121130800820B4051212839201AFF8
:100A500014EF3395E0FEEF2401FDE43EFCAB12EB16
:100A60003395E0FAC3EB9DEC6480F8EA648098501B
:100A700004C2A08002D2A0AD13ED3395E0FCED24BA
:100A800001FDE43CFCD3ED9BEA6480F8EC648098C3
:100A900050047D0180027D00EF2401FFE43EFEE56D
:100AA00012FB3395E0FAD3EF9BEA6480F8EE6480A2
:100AB0009840047F0180027F00EF4D6005C29402E0
:070AC0000818D29402081887
:03000000020DF7F7
:0C0DF700787FE4F6D8FD758120020E3EE6
:100AC700EC4D6011E8497017ED33EC3304600DE429
:100AD700FCFFFEFD22E933E8330470F8020C7712BD
:100AE7000C4258046009E4CC2481500628500902BE
:100AF7000C81284003020C7EC0E0EB4A7044B980A9
:100B070006D0E0FB020C6DEF4E701CBD8008EBFFBA
:100B1700EAFEE9FD80EBE98DF0A4FEE5F0020BB0FB
:100B2700E9CDF9EAFEEBFFEF89F0A4FCE5F0CE8909
:100B3700F0A42EFFE435F0CD89F0A42DFEE435F0C6
:100B47008067EF4E7005BD80D780C3EF8BF0A4ACF4
:100B5700F0EE8BF0A42CFCE435F0F8EF8AF0A42C2F
:100B6700E5F038FCE433CB8DF0A42CFCE5F03BF842
:100B7700EE8AF0A42CFCE5F038F8E433CF89F0A432
:100B87002CFCE5F038CF3400CE89F0A42FFFE5F038
:100B97003EFEE433C98DF0A42EFEE5F039CD8AF090
:100BA700A42FFFE5F03EFEE43DFD33D0E0FB500708
:100BB7000BBB000F020C81EC2CFCEF33FFEE33FE76
:060BC700ED33FD020C59A4
:100BCD0075F020800E75F010800575F0087D007EA3
:100BDD00007F003392D530D503120CDBEC3340107F
:100BED00EF33FFEE33FEED33FDEC33FCD5F0ED22AC
:0E0BFD00E5F0247EA2D513CC92E7CDCEFF22E8
:100C0B00EDD2E7CD33EC3392D524814006E4FFFEE1
:100C1B00FDFC22FCE4CFCECDCC24E0501174FF8040
:100C2B00EDC3CC13CCCD13CDCE13CECF13CF0470DD
:070C3B00F030D5DE020CDBF6
:100C4200E9D2E7C933E833F892D5EDD2E7CD33ECF8
:070C520033FC5002B2D52271
:100C5900EC30E7100FBF000C0EBE00080DBD0004FC
:100C69000BEB6014A2D5EB13FCED92E7FD2274FFA8
:100C7900FCFDFEFF22E480F8A2D574FF13FC7D8001
:030C8900E480EF15
:100E0300020800E493A3F8E493A34003F68001F2FD
:100E130008DFF48029E493A3F85407240CC8C333F0
:100E2300C4540F4420C8834004F456800146F6DFBF
:100E3300E4800B0102040810204080901273E47ECA
:100E4300019360BCA3FF543F30E509541FFEE493B4
:100E5300A360010ECF54C025E060A840B8E493A37B
:100E6300FAE493A3F8E493A3C8C582C8CAC583CAA6
:100E7300F0A3C8C582C8CAC583CADFE9DEE780BE5E
:01127A000073
:100C8C00BB010689828A83E0225002E722BBFE0266
:090C9C00E32289828A83E4932299
:100CA500C2D5EC30E709B2D5E4C39DFDE49CFCEE6A
:100CB50030E715B2D5E4C39FFFE49EFE120CE9C3ED
:100CC500E49DFDE49CFC8003120CE930D507C3E4E8
:060CD5009FFFE49EFE22D9
:0E0CDB00C3E49FFFE49EFEE49DFDE49CFC222A
:100CE900BC000BBE0029EF8DF084FFADF022E4CCEF
:100CF900F875F008EF2FFFEE33FEEC33FCEE9DECB8
:100D0900984005FCEE9DFE0FD5F0E9E4CEFD22EDFD
:100D1900F8F5F0EE8420D21CFEADF075F008EF2F47
:100D2900FFED33FD4007985006D5F0F222C398FD38
:050D39000FD5F0EA22D5
:00000001FF
